{
  "contractName": "Base",
  "abi": [
    {
      "anonymous": false,
      "inputs": [
        {
          "indexed": true,
          "internalType": "address",
          "name": "owner",
          "type": "address"
        },
        {
          "indexed": true,
          "internalType": "address",
          "name": "spender",
          "type": "address"
        },
        {
          "indexed": false,
          "internalType": "uint256",
          "name": "value",
          "type": "uint256"
        }
      ],
      "name": "Approval",
      "type": "event"
    },
    {
      "anonymous": false,
      "inputs": [
        {
          "indexed": false,
          "internalType": "bytes32",
          "name": "serial",
          "type": "bytes32"
        },
        {
          "indexed": false,
          "internalType": "uint256",
          "name": "value",
          "type": "uint256"
        }
      ],
      "name": "Burned",
      "type": "event"
    },
    {
      "anonymous": false,
      "inputs": [
        {
          "indexed": false,
          "internalType": "uint16",
          "name": "value",
          "type": "uint16"
        }
      ],
      "name": "FeeUpdated",
      "type": "event"
    },
    {
      "anonymous": false,
      "inputs": [
        {
          "indexed": false,
          "internalType": "bytes32",
          "name": "serial",
          "type": "bytes32"
        },
        {
          "indexed": false,
          "internalType": "uint256",
          "name": "value",
          "type": "uint256"
        }
      ],
      "name": "Minted",
      "type": "event"
    },
    {
      "anonymous": false,
      "inputs": [
        {
          "indexed": true,
          "internalType": "address",
          "name": "previousOwner",
          "type": "address"
        },
        {
          "indexed": true,
          "internalType": "address",
          "name": "newOwner",
          "type": "address"
        }
      ],
      "name": "OwnershipTransferred",
      "type": "event"
    },
    {
      "anonymous": false,
      "inputs": [
        {
          "indexed": true,
          "internalType": "address",
          "name": "from",
          "type": "address"
        },
        {
          "indexed": true,
          "internalType": "address",
          "name": "to",
          "type": "address"
        },
        {
          "indexed": false,
          "internalType": "uint256",
          "name": "value",
          "type": "uint256"
        }
      ],
      "name": "Transfer",
      "type": "event"
    },
    {
      "stateMutability": "payable",
      "type": "fallback"
    },
    {
      "inputs": [],
      "name": "burner",
      "outputs": [
        {
          "internalType": "address",
          "name": "",
          "type": "address"
        }
      ],
      "stateMutability": "view",
      "type": "function"
    },
    {
      "inputs": [],
      "name": "decimals",
      "outputs": [
        {
          "internalType": "uint8",
          "name": "",
          "type": "uint8"
        }
      ],
      "stateMutability": "view",
      "type": "function"
    },
    {
      "inputs": [],
      "name": "fee",
      "outputs": [
        {
          "internalType": "uint16",
          "name": "",
          "type": "uint16"
        }
      ],
      "stateMutability": "view",
      "type": "function"
    },
    {
      "inputs": [],
      "name": "feeHolder",
      "outputs": [
        {
          "internalType": "address",
          "name": "",
          "type": "address"
        }
      ],
      "stateMutability": "view",
      "type": "function"
    },
    {
      "inputs": [],
      "name": "lastUpdated",
      "outputs": [
        {
          "internalType": "uint256",
          "name": "",
          "type": "uint256"
        }
      ],
      "stateMutability": "view",
      "type": "function"
    },
    {
      "inputs": [],
      "name": "minter",
      "outputs": [
        {
          "internalType": "address",
          "name": "",
          "type": "address"
        }
      ],
      "stateMutability": "view",
      "type": "function"
    },
    {
      "inputs": [],
      "name": "owner",
      "outputs": [
        {
          "internalType": "address",
          "name": "",
          "type": "address"
        }
      ],
      "stateMutability": "view",
      "type": "function"
    },
    {
      "inputs": [],
      "name": "paused",
      "outputs": [
        {
          "internalType": "bool",
          "name": "",
          "type": "bool"
        }
      ],
      "stateMutability": "view",
      "type": "function"
    },
    {
      "inputs": [
        {
          "internalType": "bytes32",
          "name": "",
          "type": "bytes32"
        },
        {
          "internalType": "bytes32",
          "name": "",
          "type": "bytes32"
        }
      ],
      "name": "stock",
      "outputs": [
        {
          "internalType": "uint256",
          "name": "",
          "type": "uint256"
        }
      ],
      "stateMutability": "view",
      "type": "function"
    },
    {
      "inputs": [],
      "name": "stockCount",
      "outputs": [
        {
          "internalType": "uint256",
          "name": "",
          "type": "uint256"
        }
      ],
      "stateMutability": "view",
      "type": "function"
    },
    {
      "inputs": [],
      "name": "totalSupply",
      "outputs": [
        {
          "internalType": "uint256",
          "name": "",
          "type": "uint256"
        }
      ],
      "stateMutability": "view",
      "type": "function"
    },
    {
      "inputs": [
        {
          "internalType": "address",
          "name": "newOwner",
          "type": "address"
        }
      ],
      "name": "transferOwnership",
      "outputs": [],
      "stateMutability": "nonpayable",
      "type": "function"
    },
    {
      "inputs": [
        {
          "internalType": "address",
          "name": "who",
          "type": "address"
        }
      ],
      "name": "balanceOf",
      "outputs": [
        {
          "internalType": "uint256",
          "name": "balance",
          "type": "uint256"
        }
      ],
      "stateMutability": "view",
      "type": "function"
    },
    {
      "inputs": [
        {
          "internalType": "address",
          "name": "to",
          "type": "address"
        },
        {
          "internalType": "uint256",
          "name": "value",
          "type": "uint256"
        }
      ],
      "name": "transfer",
      "outputs": [
        {
          "internalType": "bool",
          "name": "",
          "type": "bool"
        }
      ],
      "stateMutability": "nonpayable",
      "type": "function"
    },
    {
      "inputs": [
        {
          "internalType": "address",
          "name": "tokenOwner",
          "type": "address"
        },
        {
          "internalType": "address",
          "name": "spender",
          "type": "address"
        }
      ],
      "name": "allowance",
      "outputs": [
        {
          "internalType": "uint256",
          "name": "remaining",
          "type": "uint256"
        }
      ],
      "stateMutability": "view",
      "type": "function"
    },
    {
      "inputs": [
        {
          "internalType": "address",
          "name": "from",
          "type": "address"
        },
        {
          "internalType": "address",
          "name": "to",
          "type": "address"
        },
        {
          "internalType": "uint256",
          "name": "value",
          "type": "uint256"
        }
      ],
      "name": "transferFrom",
      "outputs": [
        {
          "internalType": "bool",
          "name": "success",
          "type": "bool"
        }
      ],
      "stateMutability": "nonpayable",
      "type": "function"
    },
    {
      "inputs": [
        {
          "internalType": "address",
          "name": "spender",
          "type": "address"
        },
        {
          "internalType": "uint256",
          "name": "value",
          "type": "uint256"
        }
      ],
      "name": "approve",
      "outputs": [
        {
          "internalType": "bool",
          "name": "",
          "type": "bool"
        }
      ],
      "stateMutability": "nonpayable",
      "type": "function"
    },
    {
      "inputs": [
        {
          "internalType": "bytes32",
          "name": "location",
          "type": "bytes32"
        },
        {
          "internalType": "bytes32",
          "name": "serial",
          "type": "bytes32"
        }
      ],
      "name": "burn",
      "outputs": [
        {
          "internalType": "bool",
          "name": "",
          "type": "bool"
        }
      ],
      "stateMutability": "nonpayable",
      "type": "function"
    },
    {
      "inputs": [
        {
          "internalType": "address",
          "name": "to",
          "type": "address"
        },
        {
          "internalType": "bytes32",
          "name": "location",
          "type": "bytes32"
        },
        {
          "internalType": "bytes32",
          "name": "serial",
          "type": "bytes32"
        },
        {
          "internalType": "uint256",
          "name": "value",
          "type": "uint256"
        }
      ],
      "name": "mint",
      "outputs": [
        {
          "internalType": "bool",
          "name": "",
          "type": "bool"
        }
      ],
      "stateMutability": "nonpayable",
      "type": "function"
    },
    {
      "inputs": [
        {
          "internalType": "uint16",
          "name": "value",
          "type": "uint16"
        }
      ],
      "name": "decreaseFee",
      "outputs": [],
      "stateMutability": "nonpayable",
      "type": "function"
    },
    {
      "inputs": [],
      "name": "increaseFee",
      "outputs": [],
      "stateMutability": "nonpayable",
      "type": "function"
    },
    {
      "inputs": [
        {
          "internalType": "uint256",
          "name": "index",
          "type": "uint256"
        },
        {
          "internalType": "address",
          "name": "who",
          "type": "address"
        }
      ],
      "name": "addToWhiteList",
      "outputs": [],
      "stateMutability": "nonpayable",
      "type": "function"
    },
    {
      "inputs": [
        {
          "internalType": "uint256",
          "name": "index",
          "type": "uint256"
        },
        {
          "internalType": "address",
          "name": "who",
          "type": "address"
        }
      ],
      "name": "removeFromWhiteList",
      "outputs": [],
      "stateMutability": "nonpayable",
      "type": "function"
    },
    {
      "inputs": [
        {
          "internalType": "uint256",
          "name": "index",
          "type": "uint256"
        },
        {
          "internalType": "address",
          "name": "who",
          "type": "address"
        }
      ],
      "name": "inWhiteList",
      "outputs": [
        {
          "internalType": "bool",
          "name": "",
          "type": "bool"
        }
      ],
      "stateMutability": "view",
      "type": "function"
    },
    {
      "inputs": [
        {
          "internalType": "address",
          "name": "who",
          "type": "address"
        }
      ],
      "name": "inAnyWhiteList",
      "outputs": [
        {
          "internalType": "bool",
          "name": "",
          "type": "bool"
        }
      ],
      "stateMutability": "view",
      "type": "function"
    },
    {
      "inputs": [
        {
          "internalType": "address",
          "name": "who",
          "type": "address"
        }
      ],
      "name": "updateBurner",
      "outputs": [
        {
          "internalType": "bool",
          "name": "",
          "type": "bool"
        }
      ],
      "stateMutability": "nonpayable",
      "type": "function"
    },
    {
      "inputs": [
        {
          "internalType": "address",
          "name": "who",
          "type": "address"
        }
      ],
      "name": "updateMinter",
      "outputs": [
        {
          "internalType": "bool",
          "name": "",
          "type": "bool"
        }
      ],
      "stateMutability": "nonpayable",
      "type": "function"
    },
    {
      "inputs": [
        {
          "internalType": "address",
          "name": "who",
          "type": "address"
        }
      ],
      "name": "updateFeeHolder",
      "outputs": [
        {
          "internalType": "bool",
          "name": "",
          "type": "bool"
        }
      ],
      "stateMutability": "nonpayable",
      "type": "function"
    },
    {
      "inputs": [
        {
          "internalType": "uint256",
          "name": "index",
          "type": "uint256"
        },
        {
          "internalType": "address",
          "name": "who",
          "type": "address"
        }
      ],
      "name": "isFeeExempt",
      "outputs": [
        {
          "internalType": "bool",
          "name": "",
          "type": "bool"
        }
      ],
      "stateMutability": "view",
      "type": "function"
    },
    {
      "inputs": [],
      "name": "pauseContract",
      "outputs": [],
      "stateMutability": "nonpayable",
      "type": "function"
    }
  ],
  "bytecode": "0x60806040526004600060156101000a81548160ff021916908360ff1602179055506014600260006101000a81548161ffff021916908361ffff160217905550336000806101000a81548173ffffffffffffffffffffffffffffffffffffffff021916908373ffffffffffffffffffffffffffffffffffffffff1602179055506135f68061008d6000396000f3fe6080604052600436106101d15760003560e01c80638508da5c116100f7578063cc6be5e411610095578063ddca3f4311610064578063ddca3f4314610b40578063e5bd23e014610b73578063f079adde14610be6578063f2fde38b14610bfd576101d2565b8063cc6be5e4146109dc578063d0b06f5d14610a33578063d0f5298414610a5e578063dd62ed3e14610abb576101d2565b8063a9059cbb116100d1578063a9059cbb14610868578063bba96c9e146108db578063bfd2a44f1461091a578063bff7290114610973576101d2565b80638508da5c1461078b5780638da5cb5b146107b6578063a33bbeaf1461080d576101d2565b80632bdbf5001161016f5780634eb03f6e1161013e5780634eb03f6e1461061b5780635c975abb1461068457806370a08231146106b35780637f3aa02714610718576101d2565b80632bdbf50014610501578063313ce5671461056a5780633266b6ec1461059b578063439766ce14610604576101d2565b8063196ee1a5116101ab578063196ee1a514610335578063199add6d1461039057806323b872dd1461041757806327810b6e146104aa576101d2565b80630754617214610240578063095ea7b31461029757806318160ddd1461030a576101d2565b5b6040517f08c379a000000000000000000000000000000000000000000000000000000000815260040180806020018281038252600b8152602001807f4e6f742070617961626c6500000000000000000000000000000000000000000081525060200191505060405180910390fd5b34801561024c57600080fd5b50610255610c4e565b604051808273ffffffffffffffffffffffffffffffffffffffff1673ffffffffffffffffffffffffffffffffffffffff16815260200191505060405180910390f35b3480156102a357600080fd5b506102f0600480360360408110156102ba57600080fd5b81019080803573ffffffffffffffffffffffffffffffffffffffff16906020019092919080359060200190929190505050610c74565b604051808215151515815260200191505060405180910390f35b34801561031657600080fd5b5061031f610e08565b6040518082815260200191505060405180910390f35b34801561034157600080fd5b5061038e6004803603604081101561035857600080fd5b8101908080359060200190929190803573ffffffffffffffffffffffffffffffffffffffff169060200190929190505050610e0e565b005b34801561039c57600080fd5b506103fd600480360360808110156103b357600080fd5b81019080803573ffffffffffffffffffffffffffffffffffffffff169060200190929190803590602001909291908035906020019092919080359060200190929190505050610fc3565b604051808215151515815260200191505060405180910390f35b34801561042357600080fd5b506104906004803603606081101561043a57600080fd5b81019080803573ffffffffffffffffffffffffffffffffffffffff169060200190929190803573ffffffffffffffffffffffffffffffffffffffff16906020019092919080359060200190929190505050611367565b604051808215151515815260200191505060405180910390f35b3480156104b657600080fd5b506104bf611611565b604051808273ffffffffffffffffffffffffffffffffffffffff1673ffffffffffffffffffffffffffffffffffffffff16815260200191505060405180910390f35b34801561050d57600080fd5b506105506004803603602081101561052457600080fd5b81019080803573ffffffffffffffffffffffffffffffffffffffff169060200190929190505050611637565b604051808215151515815260200191505060405180910390f35b34801561057657600080fd5b5061057f6117cb565b604051808260ff1660ff16815260200191505060405180910390f35b3480156105a757600080fd5b506105ea600480360360208110156105be57600080fd5b81019080803573ffffffffffffffffffffffffffffffffffffffff1690602001909291905050506117de565b604051808215151515815260200191505060405180910390f35b34801561061057600080fd5b50610619611972565b005b34801561062757600080fd5b5061066a6004803603602081101561063e57600080fd5b81019080803573ffffffffffffffffffffffffffffffffffffffff169060200190929190505050611a34565b604051808215151515815260200191505060405180910390f35b34801561069057600080fd5b50610699611bc8565b604051808215151515815260200191505060405180910390f35b3480156106bf57600080fd5b50610702600480360360208110156106d657600080fd5b81019080803573ffffffffffffffffffffffffffffffffffffffff169060200190929190505050611bdb565b6040518082815260200191505060405180910390f35b34801561072457600080fd5b506107716004803603604081101561073b57600080fd5b8101908080359060200190929190803573ffffffffffffffffffffffffffffffffffffffff169060200190929190505050611c24565b604051808215151515815260200191505060405180910390f35b34801561079757600080fd5b506107a0611df2565b6040518082815260200191505060405180910390f35b3480156107c257600080fd5b506107cb611df8565b604051808273ffffffffffffffffffffffffffffffffffffffff1673ffffffffffffffffffffffffffffffffffffffff16815260200191505060405180910390f35b34801561081957600080fd5b506108666004803603604081101561083057600080fd5b8101908080359060200190929190803573ffffffffffffffffffffffffffffffffffffffff169060200190929190505050611e1d565b005b34801561087457600080fd5b506108c16004803603604081101561088b57600080fd5b81019080803573ffffffffffffffffffffffffffffffffffffffff16906020019092919080359060200190929190505050611fc9565b604051808215151515815260200191505060405180910390f35b3480156108e757600080fd5b50610918600480360360208110156108fe57600080fd5b81019080803561ffff169060200190929190505050611fe0565b005b34801561092657600080fd5b5061095d6004803603604081101561093d57600080fd5b8101908080359060200190929190803590602001909291905050506121c9565b6040518082815260200191505060405180910390f35b34801561097f57600080fd5b506109c26004803603602081101561099657600080fd5b81019080803573ffffffffffffffffffffffffffffffffffffffff1690602001909291905050506121ee565b604051808215151515815260200191505060405180910390f35b3480156109e857600080fd5b506109f1612378565b604051808273ffffffffffffffffffffffffffffffffffffffff1673ffffffffffffffffffffffffffffffffffffffff16815260200191505060405180910390f35b348015610a3f57600080fd5b50610a4861239e565b6040518082815260200191505060405180910390f35b348015610a6a57600080fd5b50610aa160048036036040811015610a8157600080fd5b8101908080359060200190929190803590602001909291905050506123a4565b604051808215151515815260200191505060405180910390f35b348015610ac757600080fd5b50610b2a60048036036040811015610ade57600080fd5b81019080803573ffffffffffffffffffffffffffffffffffffffff169060200190929190803573ffffffffffffffffffffffffffffffffffffffff169060200190929190505050612697565b6040518082815260200191505060405180910390f35b348015610b4c57600080fd5b50610b5561271e565b604051808261ffff1661ffff16815260200191505060405180910390f35b348015610b7f57600080fd5b50610bcc60048036036040811015610b9657600080fd5b8101908080359060200190929190803573ffffffffffffffffffffffffffffffffffffffff169060200190929190505050612732565b604051808215151515815260200191505060405180910390f35b348015610bf257600080fd5b50610bfb612850565b005b348015610c0957600080fd5b50610c4c60048036036020811015610c2057600080fd5b81019080803573ffffffffffffffffffffffffffffffffffffffff1690602001909291905050506129dd565b005b600660009054906101000a900473ffffffffffffffffffffffffffffffffffffffff1681565b60008073ffffffffffffffffffffffffffffffffffffffff168373ffffffffffffffffffffffffffffffffffffffff161415610d18576040517f08c379a000000000000000000000000000000000000000000000000000000000815260040180806020018281038252600f8152602001807f496e76616c69642061646472657373000000000000000000000000000000000081525060200191505060405180910390fd5b81600a60003373ffffffffffffffffffffffffffffffffffffffff1673ffffffffffffffffffffffffffffffffffffffff16815260200190815260200160002060008573ffffffffffffffffffffffffffffffffffffffff1673ffffffffffffffffffffffffffffffffffffffff168152602001908152602001600020819055508273ffffffffffffffffffffffffffffffffffffffff163373ffffffffffffffffffffffffffffffffffffffff167f8c5be1e5ebec7d5bd14f71427d1e84f3dd0314c0f7b2291e5b200ac8c7c3b925846040518082815260200191505060405180910390a36001905092915050565b60015481565b6000809054906101000a900473ffffffffffffffffffffffffffffffffffffffff1673ffffffffffffffffffffffffffffffffffffffff163373ffffffffffffffffffffffffffffffffffffffff1614610eb3576040517f08c379a000000000000000000000000000000000000000000000000000000000815260040180806020018281038252602b815260200180613596602b913960400191505060405180910390fd5b600073ffffffffffffffffffffffffffffffffffffffff168173ffffffffffffffffffffffffffffffffffffffff161415610f56576040517f08c379a000000000000000000000000000000000000000000000000000000000815260040180806020018281038252600f8152602001807f496e76616c69642061646472657373000000000000000000000000000000000081525060200191505060405180910390fd5b6001600b600084815260200190815260200160002060008373ffffffffffffffffffffffffffffffffffffffff1673ffffffffffffffffffffffffffffffffffffffff16815260200190815260200160002060006101000a81548160ff0219169083151502179055505050565b60003373ffffffffffffffffffffffffffffffffffffffff16600660009054906101000a900473ffffffffffffffffffffffffffffffffffffffff1673ffffffffffffffffffffffffffffffffffffffff1614611088576040517f08c379a00000000000000000000000000000000000000000000000000000000081526004018080602001828103825260168152602001807f53656e646572206973206e6f742061206d696e7465720000000000000000000081525060200191505060405180910390fd5b600073ffffffffffffffffffffffffffffffffffffffff168573ffffffffffffffffffffffffffffffffffffffff16141561112b576040517f08c379a000000000000000000000000000000000000000000000000000000000815260040180806020018281038252600f8152602001807f496e76616c69642061646472657373000000000000000000000000000000000081525060200191505060405180910390fd5b600082116111a1576040517f08c379a00000000000000000000000000000000000000000000000000000000081526004018080602001828103825260208152602001807f416d6f756e74206d7573742062652067726561746572207468616e207a65726f81525060200191505060405180910390fd5b81600560008681526020019081526020016000206000858152602001908152602001600020819055506111e06001600454612be390919063ffffffff16565b6004819055506111fb82600154612be390919063ffffffff16565b60018190555061125382600960008873ffffffffffffffffffffffffffffffffffffffff1673ffffffffffffffffffffffffffffffffffffffff16815260200190815260200160002054612be390919063ffffffff16565b600960008773ffffffffffffffffffffffffffffffffffffffff1673ffffffffffffffffffffffffffffffffffffffff168152602001908152602001600020819055508473ffffffffffffffffffffffffffffffffffffffff166000809054906101000a900473ffffffffffffffffffffffffffffffffffffffff1673ffffffffffffffffffffffffffffffffffffffff167fddf252ad1be2c89b69c2b068fc378daa952ba7f163c4a11628f55a4df523b3ef846040518082815260200191505060405180910390a37fe5889382823e45da32d98d9b770d082563fc781d4ad6652bd2739d2494efacde8383604051808381526020018281526020019250505060405180910390a160019050949350505050565b60008073ffffffffffffffffffffffffffffffffffffffff168373ffffffffffffffffffffffffffffffffffffffff16141561140b576040517f08c379a000000000000000000000000000000000000000000000000000000000815260040180806020018281038252600f8152602001807f496e76616c69642061646472657373000000000000000000000000000000000081525060200191505060405180910390fd5b61149a82600a60008773ffffffffffffffffffffffffffffffffffffffff1673ffffffffffffffffffffffffffffffffffffffff16815260200190815260200160002060003373ffffffffffffffffffffffffffffffffffffffff1673ffffffffffffffffffffffffffffffffffffffff16815260200190815260200160002054612c6b90919063ffffffff16565b600a60008673ffffffffffffffffffffffffffffffffffffffff1673ffffffffffffffffffffffffffffffffffffffff16815260200190815260200160002060003373ffffffffffffffffffffffffffffffffffffffff1673ffffffffffffffffffffffffffffffffffffffff16815260200190815260200160002081905550611525848484612cb5565b3373ffffffffffffffffffffffffffffffffffffffff168473ffffffffffffffffffffffffffffffffffffffff167f8c5be1e5ebec7d5bd14f71427d1e84f3dd0314c0f7b2291e5b200ac8c7c3b925600a60008873ffffffffffffffffffffffffffffffffffffffff1673ffffffffffffffffffffffffffffffffffffffff16815260200190815260200160002060003373ffffffffffffffffffffffffffffffffffffffff1673ffffffffffffffffffffffffffffffffffffffff168152602001908152602001600020546040518082815260200191505060405180910390a3600190509392505050565b600760009054906101000a900473ffffffffffffffffffffffffffffffffffffffff1681565b60008060009054906101000a900473ffffffffffffffffffffffffffffffffffffffff1673ffffffffffffffffffffffffffffffffffffffff163373ffffffffffffffffffffffffffffffffffffffff16146116de576040517f08c379a000000000000000000000000000000000000000000000000000000000815260040180806020018281038252602b815260200180613596602b913960400191505060405180910390fd5b600073ffffffffffffffffffffffffffffffffffffffff168273ffffffffffffffffffffffffffffffffffffffff161415611781576040517f08c379a000000000000000000000000000000000000000000000000000000000815260040180806020018281038252600f8152602001807f496e76616c69642061646472657373000000000000000000000000000000000081525060200191505060405180910390fd5b81600860006101000a81548173ffffffffffffffffffffffffffffffffffffffff021916908373ffffffffffffffffffffffffffffffffffffffff16021790555060019050919050565b600060159054906101000a900460ff1681565b60008060009054906101000a900473ffffffffffffffffffffffffffffffffffffffff1673ffffffffffffffffffffffffffffffffffffffff163373ffffffffffffffffffffffffffffffffffffffff1614611885576040517f08c379a000000000000000000000000000000000000000000000000000000000815260040180806020018281038252602b815260200180613596602b913960400191505060405180910390fd5b600073ffffffffffffffffffffffffffffffffffffffff168273ffffffffffffffffffffffffffffffffffffffff161415611928576040517f08c379a000000000000000000000000000000000000000000000000000000000815260040180806020018281038252600f8152602001807f496e76616c69642061646472657373000000000000000000000000000000000081525060200191505060405180910390fd5b81600760006101000a81548173ffffffffffffffffffffffffffffffffffffffff021916908373ffffffffffffffffffffffffffffffffffffffff16021790555060019050919050565b6000809054906101000a900473ffffffffffffffffffffffffffffffffffffffff1673ffffffffffffffffffffffffffffffffffffffff163373ffffffffffffffffffffffffffffffffffffffff1614611a17576040517f08c379a000000000000000000000000000000000000000000000000000000000815260040180806020018281038252602b815260200180613596602b913960400191505060405180910390fd5b6001600060146101000a81548160ff021916908315150217905550565b60008060009054906101000a900473ffffffffffffffffffffffffffffffffffffffff1673ffffffffffffffffffffffffffffffffffffffff163373ffffffffffffffffffffffffffffffffffffffff1614611adb576040517f08c379a000000000000000000000000000000000000000000000000000000000815260040180806020018281038252602b815260200180613596602b913960400191505060405180910390fd5b600073ffffffffffffffffffffffffffffffffffffffff168273ffffffffffffffffffffffffffffffffffffffff161415611b7e576040517f08c379a000000000000000000000000000000000000000000000000000000000815260040180806020018281038252600f8152602001807f496e76616c69642061646472657373000000000000000000000000000000000081525060200191505060405180910390fd5b81600660006101000a81548173ffffffffffffffffffffffffffffffffffffffff021916908373ffffffffffffffffffffffffffffffffffffffff16021790555060019050919050565b600060149054906101000a900460ff1681565b6000600960008373ffffffffffffffffffffffffffffffffffffffff1673ffffffffffffffffffffffffffffffffffffffff168152602001908152602001600020549050919050565b600060011515600b600085815260200190815260200160002060008473ffffffffffffffffffffffffffffffffffffffff1673ffffffffffffffffffffffffffffffffffffffff16815260200190815260200160002060009054906101000a900460ff1615151480611ce35750600860009054906101000a900473ffffffffffffffffffffffffffffffffffffffff1673ffffffffffffffffffffffffffffffffffffffff168273ffffffffffffffffffffffffffffffffffffffff16145b80611d3a57506000809054906101000a900473ffffffffffffffffffffffffffffffffffffffff1673ffffffffffffffffffffffffffffffffffffffff168273ffffffffffffffffffffffffffffffffffffffff16145b80611d925750600760009054906101000a900473ffffffffffffffffffffffffffffffffffffffff1673ffffffffffffffffffffffffffffffffffffffff168273ffffffffffffffffffffffffffffffffffffffff16145b80611dea5750600660009054906101000a900473ffffffffffffffffffffffffffffffffffffffff1673ffffffffffffffffffffffffffffffffffffffff168273ffffffffffffffffffffffffffffffffffffffff16145b905092915050565b60045481565b6000809054906101000a900473ffffffffffffffffffffffffffffffffffffffff1681565b6000809054906101000a900473ffffffffffffffffffffffffffffffffffffffff1673ffffffffffffffffffffffffffffffffffffffff163373ffffffffffffffffffffffffffffffffffffffff1614611ec2576040517f08c379a000000000000000000000000000000000000000000000000000000000815260040180806020018281038252602b815260200180613596602b913960400191505060405180910390fd5b600073ffffffffffffffffffffffffffffffffffffffff168173ffffffffffffffffffffffffffffffffffffffff161415611f65576040517f08c379a000000000000000000000000000000000000000000000000000000000815260040180806020018281038252600f8152602001807f496e76616c69642061646472657373000000000000000000000000000000000081525060200191505060405180910390fd5b600b600083815260200190815260200160002060008273ffffffffffffffffffffffffffffffffffffffff1673ffffffffffffffffffffffffffffffffffffffff16815260200190815260200160002060006101000a81549060ff02191690555050565b6000611fd6338484612cb5565b6001905092915050565b6000809054906101000a900473ffffffffffffffffffffffffffffffffffffffff1673ffffffffffffffffffffffffffffffffffffffff163373ffffffffffffffffffffffffffffffffffffffff1614612085576040517f08c379a000000000000000000000000000000000000000000000000000000000815260040180806020018281038252602b815260200180613596602b913960400191505060405180910390fd5b600260009054906101000a900461ffff1661ffff168161ffff16106120f5576040517f08c379a00000000000000000000000000000000000000000000000000000000081526004018080602001828103825260258152602001806135716025913960400191505060405180910390fd5b60008161ffff161015612153576040517f08c379a00000000000000000000000000000000000000000000000000000000081526004018080602001828103825260298152602001806135486029913960400191505060405180910390fd5b4260038190555080600260006101000a81548161ffff021916908361ffff1602179055507fc8fcf8ee1425e7e60b8af83735e1eb516d5b9ef05bfd6eece552ebaeb7c75b48600260009054906101000a900461ffff16604051808261ffff1661ffff16815260200191505060405180910390a150565b6005602052816000526040600020602052806000526040600020600091509150505481565b600060011515600b600080815260200190815260200160002060008473ffffffffffffffffffffffffffffffffffffffff1673ffffffffffffffffffffffffffffffffffffffff16815260200190815260200160002060009054906101000a900460ff16151514806122c2575060011515600b60006001815260200190815260200160002060008473ffffffffffffffffffffffffffffffffffffffff1673ffffffffffffffffffffffffffffffffffffffff16815260200190815260200160002060009054906101000a900460ff161515145b8061231a5750600860009054906101000a900473ffffffffffffffffffffffffffffffffffffffff1673ffffffffffffffffffffffffffffffffffffffff168273ffffffffffffffffffffffffffffffffffffffff16145b8061237157506000809054906101000a900473ffffffffffffffffffffffffffffffffffffffff1673ffffffffffffffffffffffffffffffffffffffff168273ffffffffffffffffffffffffffffffffffffffff16145b9050919050565b600860009054906101000a900473ffffffffffffffffffffffffffffffffffffffff1681565b60035481565b60003373ffffffffffffffffffffffffffffffffffffffff16600760009054906101000a900473ffffffffffffffffffffffffffffffffffffffff1673ffffffffffffffffffffffffffffffffffffffff1614612469576040517f08c379a00000000000000000000000000000000000000000000000000000000081526004018080602001828103825260168152602001807f53656e646572206973206e6f742061206275726e65720000000000000000000081525060200191505060405180910390fd5b600060056000858152602001908152602001600020600084815260200190815260200160002054905060006005600086815260200190815260200160002060008581526020019081526020016000208190555061252f81600960008060009054906101000a900473ffffffffffffffffffffffffffffffffffffffff1673ffffffffffffffffffffffffffffffffffffffff1673ffffffffffffffffffffffffffffffffffffffff16815260200190815260200160002054612c6b90919063ffffffff16565b600960008060009054906101000a900473ffffffffffffffffffffffffffffffffffffffff1673ffffffffffffffffffffffffffffffffffffffff1673ffffffffffffffffffffffffffffffffffffffff168152602001908152602001600020819055506125a96001600454612c6b90919063ffffffff16565b6004819055506125c481600154612c6b90919063ffffffff16565b600181905550600073ffffffffffffffffffffffffffffffffffffffff166000809054906101000a900473ffffffffffffffffffffffffffffffffffffffff1673ffffffffffffffffffffffffffffffffffffffff167fddf252ad1be2c89b69c2b068fc378daa952ba7f163c4a11628f55a4df523b3ef836040518082815260200191505060405180910390a37f332f25d7d767b49a1126573abecdd03ab5293993961c8c46f81e74c188aba5558382604051808381526020018281526020019250505060405180910390a15092915050565b6000600a60008473ffffffffffffffffffffffffffffffffffffffff1673ffffffffffffffffffffffffffffffffffffffff16815260200190815260200160002060008373ffffffffffffffffffffffffffffffffffffffff1673ffffffffffffffffffffffffffffffffffffffff16815260200190815260200160002054905092915050565b600260009054906101000a900461ffff1681565b600060011515600b600085815260200190815260200160002060008473ffffffffffffffffffffffffffffffffffffffff1673ffffffffffffffffffffffffffffffffffffffff16815260200190815260200160002060009054906101000a900460ff16151514806127f15750600860009054906101000a900473ffffffffffffffffffffffffffffffffffffffff1673ffffffffffffffffffffffffffffffffffffffff168273ffffffffffffffffffffffffffffffffffffffff16145b8061284857506000809054906101000a900473ffffffffffffffffffffffffffffffffffffffff1673ffffffffffffffffffffffffffffffffffffffff168273ffffffffffffffffffffffffffffffffffffffff16145b905092915050565b6000809054906101000a900473ffffffffffffffffffffffffffffffffffffffff1673ffffffffffffffffffffffffffffffffffffffff163373ffffffffffffffffffffffffffffffffffffffff16146128f5576040517f08c379a000000000000000000000000000000000000000000000000000000000815260040180806020018281038252602b815260200180613596602b913960400191505060405180910390fd5b62278d00600354014211612954576040517f08c379a000000000000000000000000000000000000000000000000000000000815260040180806020018281038252602f815260200180613519602f913960400191505060405180910390fd5b42600381905550600a600260008282829054906101000a900461ffff160192506101000a81548161ffff021916908361ffff1602179055507fc8fcf8ee1425e7e60b8af83735e1eb516d5b9ef05bfd6eece552ebaeb7c75b48600260009054906101000a900461ffff16604051808261ffff1661ffff16815260200191505060405180910390a1565b6000809054906101000a900473ffffffffffffffffffffffffffffffffffffffff1673ffffffffffffffffffffffffffffffffffffffff163373ffffffffffffffffffffffffffffffffffffffff1614612a82576040517f08c379a000000000000000000000000000000000000000000000000000000000815260040180806020018281038252602b815260200180613596602b913960400191505060405180910390fd5b600073ffffffffffffffffffffffffffffffffffffffff168173ffffffffffffffffffffffffffffffffffffffff161415612b25576040517f08c379a000000000000000000000000000000000000000000000000000000000815260040180806020018281038252600f8152602001807f496e76616c69642061646472657373000000000000000000000000000000000081525060200191505060405180910390fd5b8073ffffffffffffffffffffffffffffffffffffffff166000809054906101000a900473ffffffffffffffffffffffffffffffffffffffff1673ffffffffffffffffffffffffffffffffffffffff167f8be0079c531659141344cd1fd0a4f28419497f9722a3daafe3b4186f6b6457e060405160405180910390a3806000806101000a81548173ffffffffffffffffffffffffffffffffffffffff021916908373ffffffffffffffffffffffffffffffffffffffff16021790555050565b600080828401905083811015612c61576040517f08c379a000000000000000000000000000000000000000000000000000000000815260040180806020018281038252601b8152602001807f536166654d6174683a206164646974696f6e206f766572666c6f77000000000081525060200191505060405180910390fd5b8091505092915050565b6000612cad83836040518060400160405280601e81526020017f536166654d6174683a207375627472616374696f6e206f766572666c6f770000815250613458565b905092915050565b60011515600060149054906101000a900460ff1615151415612d3f576040517f08c379a000000000000000000000000000000000000000000000000000000000815260040180806020018281038252600f8152602001807f436f6e747261637420706175736564000000000000000000000000000000000081525060200191505060405180910390fd5b600073ffffffffffffffffffffffffffffffffffffffff168273ffffffffffffffffffffffffffffffffffffffff161415612de2576040517f08c379a000000000000000000000000000000000000000000000000000000000815260040180806020018281038252600f8152602001807f496e76616c69642061646472657373000000000000000000000000000000000081525060200191505060405180910390fd5b600073ffffffffffffffffffffffffffffffffffffffff168373ffffffffffffffffffffffffffffffffffffffff161415612e85576040517f08c379a000000000000000000000000000000000000000000000000000000000815260040180806020018281038252600f8152602001807f496e76616c69642061646472657373000000000000000000000000000000000081525060200191505060405180910390fd5b80600960008573ffffffffffffffffffffffffffffffffffffffff1673ffffffffffffffffffffffffffffffffffffffff168152602001908152602001600020541015612f3a576040517f08c379a00000000000000000000000000000000000000000000000000000000081526004018080602001828103825260128152602001807f496e73756666696369656e742066756e6473000000000000000000000000000081525060200191505060405180910390fd5b612f45600084611c24565b80612f575750612f56600183611c24565b5b156130f057612fae81600960008673ffffffffffffffffffffffffffffffffffffffff1673ffffffffffffffffffffffffffffffffffffffff16815260200190815260200160002054612c6b90919063ffffffff16565b600960008573ffffffffffffffffffffffffffffffffffffffff1673ffffffffffffffffffffffffffffffffffffffff1681526020019081526020016000208190555061304381600960008573ffffffffffffffffffffffffffffffffffffffff1673ffffffffffffffffffffffffffffffffffffffff16815260200190815260200160002054612be390919063ffffffff16565b600960008473ffffffffffffffffffffffffffffffffffffffff1673ffffffffffffffffffffffffffffffffffffffff168152602001908152602001600020819055508173ffffffffffffffffffffffffffffffffffffffff168373ffffffffffffffffffffffffffffffffffffffff167fddf252ad1be2c89b69c2b068fc378daa952ba7f163c4a11628f55a4df523b3ef836040518082815260200191505060405180910390a3613453565b60008060159054906101000a900460ff1660ff16600a61ffff160a61ffff1682600260009054906101000a900461ffff1661ffff16028161312d57fe5b049050600081141561313e57600190505b61319082600960008773ffffffffffffffffffffffffffffffffffffffff1673ffffffffffffffffffffffffffffffffffffffff16815260200190815260200160002054612c6b90919063ffffffff16565b600960008673ffffffffffffffffffffffffffffffffffffffff1673ffffffffffffffffffffffffffffffffffffffff168152602001908152602001600020819055506132478160096000600860009054906101000a900473ffffffffffffffffffffffffffffffffffffffff1673ffffffffffffffffffffffffffffffffffffffff1673ffffffffffffffffffffffffffffffffffffffff16815260200190815260200160002054612be390919063ffffffff16565b60096000600860009054906101000a900473ffffffffffffffffffffffffffffffffffffffff1673ffffffffffffffffffffffffffffffffffffffff1673ffffffffffffffffffffffffffffffffffffffff168152602001908152602001600020819055506133106132c28284612c6b90919063ffffffff16565b600960008673ffffffffffffffffffffffffffffffffffffffff1673ffffffffffffffffffffffffffffffffffffffff16815260200190815260200160002054612be390919063ffffffff16565b600960008573ffffffffffffffffffffffffffffffffffffffff1673ffffffffffffffffffffffffffffffffffffffff168152602001908152602001600020819055508273ffffffffffffffffffffffffffffffffffffffff168473ffffffffffffffffffffffffffffffffffffffff167fddf252ad1be2c89b69c2b068fc378daa952ba7f163c4a11628f55a4df523b3ef6133b58486612c6b90919063ffffffff16565b6040518082815260200191505060405180910390a3600860009054906101000a900473ffffffffffffffffffffffffffffffffffffffff1673ffffffffffffffffffffffffffffffffffffffff168473ffffffffffffffffffffffffffffffffffffffff167fddf252ad1be2c89b69c2b068fc378daa952ba7f163c4a11628f55a4df523b3ef836040518082815260200191505060405180910390a3505b505050565b6000838311158290613505576040517f08c379a00000000000000000000000000000000000000000000000000000000081526004018080602001828103825283818151815260200191508051906020019080838360005b838110156134ca5780820151818401526020810190506134af565b50505050905090810190601f1680156134f75780820380516001836020036101000a031916815260200191505b509250505060405180910390fd5b506000838503905080915050939250505056fe43616e6e6f7420757064617465206665652077697468696e2033302064617973206f66206c617374206368616e6765466565206d7573742062652067726561746572207468616e206f7220657175616c20746f207a65726f4e657720666565206d757374206265206c657373207468616e2063757272656e742066656546756e6374696f6e2063616e206f6e6c7920626520706572666f726d656420627920746865206f776e6572a2646970667358221220b6a8daf2dfabbc7f187c605bb22466d195e755ddc1673a3ecc161519814185a364736f6c63430006020033",
  "source": "pragma solidity ^0.6.0;\n\nimport \"./IERC20.sol\";\nimport \"./Ownable.sol\";\nimport \"./SafeMath.sol\";\n\ncontract Base is IERC20, Ownable {\n    using SafeMath for uint;\n\n    uint constant private Sender = 0;\n    uint constant private Receiver = 1;\n\n    bool public paused;\n\n    struct Bar {\n        uint256 amount;\n        bytes32 location;\n        bytes32 serial;\n    }\n\n    // Public variables of the token\n    uint8 public decimals = 4;\n    uint256 override public totalSupply;\n\n    uint16 constant private FEE_INCREASE = 10; //As 0.10%\n    uint16 public fee = 20; //As 0.20%\n    uint256 public lastUpdated;\n\n    uint256 public stockCount;\n    mapping (bytes32 => mapping(bytes32 => uint256)) public stock;\n    \n    address public minter;\n    address public burner;\n    address public feeHolder;\n\n    mapping (address => uint256) private balances;\n    mapping (address => mapping (address => uint256)) private allowed;\n    mapping (uint => mapping(address => bool)) private whiteList;\n\n    function balanceOf(address who) override public view returns (uint256 balance) {\n        balance = balances[who];\n    }\n\n    function _transfer(address from, address to, uint256 value) internal {\n        require(paused != true, \"Contract paused\");\n        require(to != address(0), \"Invalid address\");\n        require(from != address(0), \"Invalid address\");\n        require(balances[from] >= value, \"Insufficient funds\");\n\n        if (isFeeExempt(Sender, from) || isFeeExempt(Receiver, to)) {\n            balances[from] = balances[from].sub(value);\n            balances[to] = balances[to].add(value);\n\n            emit Transfer(from, to, value);\n        } else {\n            uint totalFee = fee * value / (uint16(10) ** decimals);\n\n            if (totalFee == 0) {\n                totalFee = 1;\n            }\n\n            balances[from] = balances[from].sub(value);\n            balances[feeHolder] = balances[feeHolder].add(totalFee);\n            balances[to] = balances[to].add(value.sub(totalFee));\n\n            emit Transfer(from, to, value.sub(totalFee));\n            emit Transfer(from, feeHolder, totalFee);\n        }\n    }\n    \n    function transfer(address to, uint256 value) override public returns (bool) {\n        _transfer(msg.sender, to, value);\n        return true;\n    }\n\n    function allowance(address tokenOwner, address spender) override public view returns (uint remaining) {\n        return allowed[tokenOwner][spender];\n    }\n\n    function transferFrom(address from, address to, uint256 value) override public returns (bool success) {\n        require(to != address(0), \"Invalid address\");\n\n        allowed[from][msg.sender] = allowed[from][msg.sender].sub(value);\n        _transfer(from, to, value);\n\n        emit Approval(from, msg.sender, allowed[from][msg.sender]);\n        return true;\n    }\n\n    function approve(address spender, uint256 value) override public returns (bool) {\n        require(spender != address(0), \"Invalid address\");\n\n        allowed[msg.sender][spender] = value;\n        emit Approval(msg.sender, spender, value);\n        return true;\n    }\n\n    function burn(bytes32 location, bytes32 serial) public onlyBurner() returns (bool) {\n        uint256 value = stock[location][serial];\n\n        stock[location][serial] = 0;\n        balances[owner] = balances[owner].sub(value);\n\n        stockCount = stockCount.sub(1);\n        totalSupply = totalSupply.sub(value);\n\n        emit Transfer(owner, address(0), value);\n        emit Burned(serial, value);\n    }\n\n    function mint(address to, bytes32 location, bytes32 serial, uint256 value) public onlyMinter() returns(bool) {\n        require(to != address(0), \"Invalid address\");\n        require(value > 0, \"Amount must be greater than zero\");\n\n        stock[location][serial] = value;\n        stockCount = stockCount.add(1);\n\n        totalSupply = totalSupply.add(value);\n        balances[to] = balances[to].add(value);\n\n        emit Transfer(owner, to, value);\n        emit Minted(serial, value);\n\n        return true;\n    }\n\n    function decreaseFee(uint16 value) public onlyOwner() {\n        require(value < fee, \"New fee must be less than current fee\");\n        require(value >= 0, \"Fee must be greater than or equal to zero\");\n\n        lastUpdated = now;\n        fee = value;\n        \n        emit FeeUpdated(fee);\n    }\n\n    function increaseFee() public onlyOwner() {\n        require(now > lastUpdated + 30 days, \"Cannot update fee within 30 days of last change\");\n        \n        lastUpdated = now;\n        fee += FEE_INCREASE;\n        \n        emit FeeUpdated(fee);\n    }\n\n    function addToWhiteList(uint index, address who) public onlyOwner() {\n        require(who != address(0), \"Invalid address\");\n        whiteList[index][who] = true;\n    }\n\n    function removeFromWhiteList(uint index, address who) public onlyOwner() {\n        require(who != address(0), \"Invalid address\");\n        delete whiteList[index][who];\n    }\n\n    function inWhiteList(uint index, address who) public view returns (bool) {\n        return whiteList[index][who] == true || who == feeHolder || who == owner;\n    }\n\n    function inAnyWhiteList(address who) public view returns (bool) {\n        return whiteList[0][who] == true || whiteList[1][who] == true || who == feeHolder || who == owner;\n    }\n\n    function updateBurner(address who) public onlyOwner() returns (bool) {\n        require(who != address(0), \"Invalid address\");\n        burner = who;\n\n        return true;\n    }\n\n    function updateMinter(address who) public onlyOwner() returns (bool) {\n        require(who != address(0), \"Invalid address\");\n        minter = who;\n\n        return true;\n    }\n\n    function updateFeeHolder(address who) public onlyOwner() returns (bool)  {\n        require(who != address(0), \"Invalid address\");\n        feeHolder = who;\n\n        return true;\n    }\n\n    function isFeeExempt(uint index, address who) public view returns (bool) {\n        return whiteList[index][who] == true || who == feeHolder || who == owner || who == burner || who == minter;\n    }\n\n    function pauseContract() public onlyOwner() {\n        paused = true;\n    }\n\n    event FeeUpdated(uint16 value);\n    event Burned(bytes32 serial, uint value);\n    event Minted(bytes32 serial, uint value);\n\n    modifier onlyBurner() {\n        require(burner == msg.sender, \"Sender is not a burner\");\n        _;\n    }\n\n    modifier onlyMinter() {\n        require(minter == msg.sender, \"Sender is not a minter\");\n        _;\n    }\n\n    fallback () external payable {\n        revert(\"Not payable\");\n    }\n}",
  "sourcePath": "/home/lucascullen/GitHub/GoldSilverStandard/ERC20/src/contracts/Base.sol",
  "compiler": {
    "name": "solc",
    "version": "0.6.2+commit.bacdbe57.Emscripten.clang"
  },
  "schemaVersion": "3.1.0",
  "updatedAt": "2020-04-12T06:30:41.346Z",
  "devdoc": {
    "methods": {}
  },
  "userdoc": {
    "methods": {}
  }
}